:0400000015EF0BF0FD
:10100000003738392F3435362A3132332D25303DEB
:0D1010002B4D4F48414D454400256900001F
:10101E00010E3A6E32503310D8B418EF08F01AEFB2
:10102E0008F02BEF08F032C0D9FF33C0DAFFDF3003
:10103E00E832E832070B346E070E346429EF08F0FD
:10104E002BEF08F08EEF08F0000E3A6EAFEF08F0BF
:10105E0032C0D9FF33C0DAFFDF30E832E832070B97
:10106E00346E010E356E342A3FEF08F0D8903536C7
:10107E00342E3DEF08F032C0D9FF33C0DAFFDF5017
:10108E00070B366E3650020D150EF324D96E000E78
:10109E00F420DA6EDECF37F0DDCF38F037C0D9FF6F
:1010AE0038C0DAFF3550DF12AFEF08F032C0D9FF8B
:1010BE0033C0DAFFDF30E832E832070B346E010E50
:1010CE00356E342A6DEF08F0D8903536342E6BEF2E
:1010DE0008F03550FF0A366E32C0D9FF33C0DAFF42
:1010EE00DF50070B376E3750020D150EF324D96EF5
:1010FE00000EF420DA6EDECF38F0DDCF39F038C0D6
:10110E00D9FF39C0DAFF3650DF16AFEF08F032C024
:10111E00D9FF33C0DAFFDFBC97EF08F09AEF08F083
:10112E00010E9BEF08F0000E346E356A3550000A42
:10113E00D8B4A4EF08F02BEF08F03450000AD8B45E
:10114E005DEF08F0010AD8B42FEF08F02BEF08F08E
:10115E003A501200010E3B6E32503310D8B4BAEF33
:10116E0008F0BCEF08F0CDEF08F032C0D9FF33C065
:10117E00DAFFDF30E832E832070B356E070E3564E2
:10118E00CBEF08F0CDEF08F030EF09F0000E3B6E1C
:10119E0045EF09F032C0D9FF33C0DAFFDF30E83255
:1011AE00E832070B356E010E366E352AE1EF08F088
:1011BE00D8903636352EDFEF08F032C0D9FF33C067
:1011CE00DAFFDF50070B376E3750020D010EF32496
:1011DE00D96E000EF420DA6EDECF38F0DDCF39F0A6
:1011EE0038C0D9FF39C0DAFF3650DF1245EF09F0AB
:1011FE0032C0D9FF33C0DAFFDF30E832E832070BF6
:10120E00356E010E366E352A0FEF09F0D890363650
:10121E00352E0DEF09F03650FF0A376E32C0D9FF6A
:10122E0033C0DAFFDF50070B386E3850020D010E57
:10123E00F324D96E000EF420DA6EDECF39F0DDCF56
:10124E003AF039C0D9FF3AC0DAFF3750DF1645EF12
:10125E0009F03450356E366A3650000AD8B43AEF7B
:10126E0009F0CDEF08F03550000AD8B4FFEF08F0C2
:10127E00010AD8B4D1EF08F0CDEF08F03B501200C0
:10128E00000E4C6E48504910D8A450EF09F052EFA2
:10129E0009F056EF09F0000E4D6EC9EF09F0010E80
:1012AE004824326E000E4920336E0FEC08F04D6E5E
:1012BE0048C032F049C033F00FEC08F04D6E000E0E
:1012CE004C6E4C5048244A6E000E49204B6E020E56
:1012DE004A24326E000E4B20336E0FEC08F04C2A6F
:1012EE00070E4C647DEF09F07FEF09F068EF09F00F
:1012FE00340E4A6EF20EE82EFED74A2EFCD748C0A8
:10130E003FF049C040F0380E416E23EC0AF00D0E4E
:10131E004A6EFC0EE82EFED74A2EFCD748C03FF090
:10132E0049C040F0380E416E23EC0AF0640EE82EF0
:10133E00FED748C03FF049C040F0380E416E23EC56
:10134E000AF048C03FF049C040F0010E416E23EC58
:10135E000AF048C03FF049C040F0020E416E23EC47
:10136E000AF048C03FF049C040F00F0E416E23EC2A
:10137E000AF048C03FF049C040F0800E416E23ECA9
:10138E000AF04D6E4D50120048504910D8A4D2EFBD
:10139E0009F0D4EF09F0D6EF09F022EF0AF04B0670
:1013AE0005EF0AF048C03FF049C040F04B50800FA7
:1013BE00416E23EC0AF022EF0AF048C03FF049C01C
:1013CE0040F04B50C00F416E23EC0AF022EF0AF0B2
:1013DE0048C03FF049C040F04B50940F416E23EC93
:1013EE000AF022EF0AF048C03FF049C040F04B50DF
:1013FE00D40F416E23EC0AF022EF0AF04A504C6EE5
:10140E004D6A4D50000AD8B40FEF0AF022EF0AF0E1
:10141E004C50010AD8B4D9EF09F0030AD8B4E4EF5E
:10142E0009F0010AD8B4EFEF09F0070AD8B4FAEFC1
:10143E0009F022EF0AF01200000E476E3F504010E6
:10144E00D8A42CEF0AF02EEF0AF032EF0AF0000EBD
:10145E00466E69EF0AF03FC032F040C033F0000E26
:10146E00346EB1EC08F0000E476E47503F24426ECA
:10147E00000E4020436E020E4224326E000E4320B8
:10148E00336E47C044F041C045F0442A51EF0AF094
:10149E00D8904532442E4FEF0AF04550010B346E72
:1014AE00B1EC08F0472A070E476460EF0AF062EFCE
:1014BE000AF03CEF0AF03FC03CF040C03DF0EDECCE
:1014CE000AF0466E46501200000E476E3F50401016
:1014DE00D8A474EF0AF076EF0AF07AEF0AF0000E55
:1014EE00466EB1EF0AF03FC032F040C033F0010E4D
:1014FE00346EB1EC08F0000E476E47503F24426E3A
:10150E00000E4020436E020E4224326E000E432027
:10151E00336E47C044F041C045F0442A99EF0AF0BB
:10152E00D8904532442E97EF0AF04550010B346E99
:10153E00B1EC08F0472A070E4764A8EF0AF0AAEFAD
:10154E000AF084EF0AF03FC03CF040C03DF0EDECF5
:10155E000AF0466E46501200010E546E4E504F1059
:10156E00D8A4BCEF0AF0BEEF0AF0C2EF0AF0000EEC
:10157E00546EEBEF0AF04EC048F04FC049F050C029
:10158E004AF051C04BF0CBEC09F0DDEF0AF04EC043
:10159E003FF04FC040F052C0F6FF53C0F7FF0800B7
:1015AE00F5CF41F06BEC0AF0524A532A52C0F6FFC7
:1015BE0053C0F7FF0800F5500009D8A4E9EF0AF070
:1015CE00EBEF0AF0CEEF0AF0545012003C503D10F3
:1015DE00D8A4F4EF0AF0F6EF0AF0FAEF0AF0000ED4
:1015EE003E6E13EF0BF0010E3C24326E000E3D20CA
:1015FE00336E010E346EB1EC08F0060EE82EFED7F7
:10160E0000D0010E3C24326E000E3D20336E000ED3
:10161E00346EB1EC08F03E6E3E501200940EF66E33
:10162E00160EF76E000EF86E00EE01F010EE31F0B1
:10163E000900F5CFEEFFE550E150FAE100EE55F06E
:10164E000D0EEE6AE806FDE1000EF86E000130EFB9
:10165E000BF0280E486E000E496E47EC09F0276E0F
:10166E00280E4E6E000E4F6E010E506E030E516E12
:10167E00110E526E100E536EB3EC0AF0276E46EF3B
:10168E000BF000EF00F0890F8A0F8B0F8C0F8D0F70
:10169E00800F810F820F830F840F920F930F940F81
:1016AE00950F960F1F0102040804021F01020A1271
:0716BE001A222A323A030B45
:020000040020DA
:08000000FFFFFFFFFFFFFFFF00
:020000040030CA
:0E000000FF021F1EFF8181FF0FC00FE00F40A7
:00000001FF
